{
  "_format": "hh-sol-artifact-1",
  "contractName": "NeoSwapFactory",
  "sourceName": "contracts/NeoSwapFactory.sol",
  "abi": [
    {
      "anonymous": false,
      "inputs": [
        {
          "indexed": true,
          "internalType": "address",
          "name": "previousOwner",
          "type": "address"
        },
        {
          "indexed": true,
          "internalType": "address",
          "name": "newOwner",
          "type": "address"
        }
      ],
      "name": "OwnershipTransferred",
      "type": "event"
    },
    {
      "anonymous": false,
      "inputs": [
        {
          "indexed": true,
          "internalType": "address",
          "name": "token0",
          "type": "address"
        },
        {
          "indexed": true,
          "internalType": "address",
          "name": "token1",
          "type": "address"
        },
        {
          "indexed": false,
          "internalType": "address",
          "name": "pair",
          "type": "address"
        },
        {
          "indexed": false,
          "internalType": "uint256",
          "name": "",
          "type": "uint256"
        }
      ],
      "name": "PairCreated",
      "type": "event"
    },
    {
      "inputs": [],
      "name": "INIT_CODE_HASH",
      "outputs": [
        {
          "internalType": "bytes32",
          "name": "",
          "type": "bytes32"
        }
      ],
      "stateMutability": "view",
      "type": "function"
    },
    {
      "inputs": [],
      "name": "LP_IMPLEMENTATION",
      "outputs": [
        {
          "internalType": "address",
          "name": "",
          "type": "address"
        }
      ],
      "stateMutability": "view",
      "type": "function"
    },
    {
      "inputs": [],
      "name": "NET_PROXYADMIN",
      "outputs": [
        {
          "internalType": "address",
          "name": "",
          "type": "address"
        }
      ],
      "stateMutability": "view",
      "type": "function"
    },
    {
      "inputs": [],
      "name": "PROX_CODE_HASH",
      "outputs": [
        {
          "internalType": "bytes32",
          "name": "_pch",
          "type": "bytes32"
        }
      ],
      "stateMutability": "view",
      "type": "function"
    },
    {
      "inputs": [
        {
          "internalType": "uint256",
          "name": "",
          "type": "uint256"
        }
      ],
      "name": "allPairs",
      "outputs": [
        {
          "internalType": "address",
          "name": "",
          "type": "address"
        }
      ],
      "stateMutability": "view",
      "type": "function"
    },
    {
      "inputs": [],
      "name": "allPairsLength",
      "outputs": [
        {
          "internalType": "uint256",
          "name": "",
          "type": "uint256"
        }
      ],
      "stateMutability": "view",
      "type": "function"
    },
    {
      "inputs": [
        {
          "internalType": "address",
          "name": "tokenA",
          "type": "address"
        },
        {
          "internalType": "address",
          "name": "tokenB",
          "type": "address"
        }
      ],
      "name": "createPair",
      "outputs": [
        {
          "internalType": "address",
          "name": "pair",
          "type": "address"
        }
      ],
      "stateMutability": "nonpayable",
      "type": "function"
    },
    {
      "inputs": [],
      "name": "feeTo",
      "outputs": [
        {
          "internalType": "address",
          "name": "",
          "type": "address"
        }
      ],
      "stateMutability": "view",
      "type": "function"
    },
    {
      "inputs": [],
      "name": "feeToSetter",
      "outputs": [
        {
          "internalType": "address",
          "name": "",
          "type": "address"
        }
      ],
      "stateMutability": "view",
      "type": "function"
    },
    {
      "inputs": [],
      "name": "ftsoData",
      "outputs": [
        {
          "internalType": "address",
          "name": "ftso1",
          "type": "address"
        },
        {
          "internalType": "address",
          "name": "ftso2",
          "type": "address"
        },
        {
          "internalType": "uint256",
          "name": "f1prc",
          "type": "uint256"
        },
        {
          "internalType": "address",
          "name": "recip",
          "type": "address"
        }
      ],
      "stateMutability": "view",
      "type": "function"
    },
    {
      "inputs": [
        {
          "internalType": "address",
          "name": "",
          "type": "address"
        },
        {
          "internalType": "address",
          "name": "",
          "type": "address"
        }
      ],
      "name": "getPair",
      "outputs": [
        {
          "internalType": "address",
          "name": "",
          "type": "address"
        }
      ],
      "stateMutability": "view",
      "type": "function"
    },
    {
      "inputs": [
        {
          "internalType": "address",
          "name": "_feeToSetter",
          "type": "address"
        }
      ],
      "name": "initialize",
      "outputs": [],
      "stateMutability": "nonpayable",
      "type": "function"
    },
    {
      "inputs": [],
      "name": "owner",
      "outputs": [
        {
          "internalType": "address",
          "name": "",
          "type": "address"
        }
      ],
      "stateMutability": "view",
      "type": "function"
    },
    {
      "inputs": [],
      "name": "renounceOwnership",
      "outputs": [],
      "stateMutability": "nonpayable",
      "type": "function"
    },
    {
      "inputs": [
        {
          "internalType": "address",
          "name": "_refPa",
          "type": "address"
        }
      ],
      "name": "setDefProxyAdmin",
      "outputs": [],
      "stateMutability": "nonpayable",
      "type": "function"
    },
    {
      "inputs": [
        {
          "internalType": "address",
          "name": "_feeTo",
          "type": "address"
        }
      ],
      "name": "setFeeTo",
      "outputs": [],
      "stateMutability": "nonpayable",
      "type": "function"
    },
    {
      "inputs": [
        {
          "internalType": "address",
          "name": "_feeToSetter",
          "type": "address"
        }
      ],
      "name": "setFeeToSetter",
      "outputs": [],
      "stateMutability": "nonpayable",
      "type": "function"
    },
    {
      "inputs": [
        {
          "internalType": "address",
          "name": "_ftso1",
          "type": "address"
        },
        {
          "internalType": "address",
          "name": "_ftso2",
          "type": "address"
        },
        {
          "internalType": "uint256",
          "name": "_ftso1percent",
          "type": "uint256"
        },
        {
          "internalType": "address",
          "name": "_recip",
          "type": "address"
        }
      ],
      "name": "setFtsoDetails",
      "outputs": [],
      "stateMutability": "nonpayable",
      "type": "function"
    },
    {
      "inputs": [
        {
          "internalType": "address",
          "name": "_refImp",
          "type": "address"
        }
      ],
      "name": "setLiqPoolRefImplementation",
      "outputs": [],
      "stateMutability": "nonpayable",
      "type": "function"
    },
    {
      "inputs": [
        {
          "internalType": "address",
          "name": "newOwner",
          "type": "address"
        }
      ],
      "name": "transferOwnership",
      "outputs": [],
      "stateMutability": "nonpayable",
      "type": "function"
    }
  ],
  "bytecode": "0x608060405234801561001057600080fd5b50615476806100206000396000f3fe60806040523480156200001157600080fd5b5060043610620001455760003560e01c80638da5cb5b11620000bb578063c9c65396116200007a578063c9c65396146200028b578063de5c470914620002a2578063e6a4390514620002f7578063f2fde38b146200032e578063f46901ed146200034557600080fd5b80638da5cb5b146200022a5780639c12cab3146200023c578063a2e74af61462000253578063b0797877146200026a578063c4d66de8146200027457600080fd5b80631e3dd18b11620001085780631e3dd18b14620001d0578063257671f514620001e7578063574f2ba31462000200578063664ccee01462000209578063715018a6146200022057600080fd5b8063017e7e58146200014a57806307a765ae146200017b57806307ad79af146200018f578063094b741514620001a35780630ba9969814620001b7575b600080fd5b6065546200015e906001600160a01b031681565b6040516001600160a01b0390911681526020015b60405180910390f35b6067546200015e906001600160a01b031681565b6068546200015e906001600160a01b031681565b6066546200015e906001600160a01b031681565b620001ce620001c836600462000d9d565b6200035c565b005b6200015e620001e136600462000e4b565b620003b4565b620001f1620003df565b60405190815260200162000172565b606a54620001f1565b620001ce6200021a36600462000d9d565b6200042d565b620001ce6200047c565b6033546001600160a01b03166200015e565b620001ce6200024d36600462000df8565b620004e6565b620001ce6200026436600462000d9d565b62000603565b620001f162000652565b620001ce6200028536600462000d9d565b620006e3565b6200015e6200029c36600462000dc1565b620007d3565b606b54606c54606d54606e54620002c7936001600160a01b0390811693811692911684565b604080516001600160a01b0395861681529385166020850152830191909152909116606082015260800162000172565b6200015e6200030836600462000dc1565b60696020908152600092835260408084209091529082529020546001600160a01b031681565b620001ce6200033f36600462000d9d565b62000acb565b620001ce6200035636600462000d9d565b62000b9c565b6066546001600160a01b03163314620003925760405162461bcd60e51b8152600401620003899062000f04565b60405180910390fd5b606880546001600160a01b0319166001600160a01b0392909216919091179055565b606a8181548110620003c557600080fd5b6000918252602090912001546001600160a01b0316905081565b604051620003f06020820162000d64565b601f1982820381018352601f90910116604081905262000414919060200162000e64565b6040516020818303038152906040528051906020012081565b6066546001600160a01b031633146200045a5760405162461bcd60e51b8152600401620003899062000f04565b606780546001600160a01b0319166001600160a01b0392909216919091179055565b6033546001600160a01b03163314620004d85760405162461bcd60e51b815260206004820181905260248201527f4f776e61626c653a2063616c6c6572206973206e6f7420746865206f776e6572604482015260640162000389565b620004e4600062000beb565b565b6066546001600160a01b03163314620005135760405162461bcd60e51b8152600401620003899062000f04565b826001600160a01b0316846001600160a01b031614156200056b5760405162461bcd60e51b81526020600482015260116024820152704e656f537761703a20426164206461746160781b604482015260640162000389565b6127118210620005be5760405162461bcd60e51b815260206004820152601760248201527f4e656f537761703a206261642070657263656e74616765000000000000000000604482015260640162000389565b606b80546001600160a01b039586166001600160a01b031991821617909155606c805494861694821694909417909355606d91909155606e8054919093169116179055565b6066546001600160a01b03163314620006305760405162461bcd60e51b8152600401620003899062000f04565b606680546001600160a01b0319166001600160a01b0392909216919091179055565b600060405180602001620006669062000d72565b601f1982820381018352606754606854601f909301909116602081810160409081526000835251620006a8946001600160a01b03948516941692910162000eb5565b60408051601f1981840301815290829052620006c8929160200162000e82565b60405160208183030381529060405280519060200120905090565b600054610100900460ff16620007005760005460ff161562000704565b303b155b620007695760405162461bcd60e51b815260206004820152602e60248201527f496e697469616c697a61626c653a20636f6e747261637420697320616c72656160448201526d191e481a5b9a5d1a585b1a5e995960921b606482015260840162000389565b600054610100900460ff161580156200078c576000805461ffff19166101011790555b606680546001600160a01b0319166001600160a01b038416179055620007b162000c3d565b620007bc3262000beb565b8015620007cf576000805461ff00191690555b5050565b6000816001600160a01b0316836001600160a01b03161415620008395760405162461bcd60e51b815260206004820152601e60248201527f556e697377617056323a204944454e544943414c5f4144445245535345530000604482015260640162000389565b600080836001600160a01b0316856001600160a01b0316106200085e57838562000861565b84845b90925090506001600160a01b038216620008be5760405162461bcd60e51b815260206004820152601760248201527f556e697377617056323a205a45524f5f41444452455353000000000000000000604482015260640162000389565b6001600160a01b038281166000908152606960209081526040808320858516845290915290205416156200092e5760405162461bcd60e51b8152602060048201526016602482015275556e697377617056323a20504149525f45584953545360501b604482015260640162000389565b6000806200093b62000c7b565b6040516bffffffffffffffffffffffff19606087811b8216602084015286901b166034820152909150600090604801604051602081830303815290604052805190602001209050808251602084016000f560405163485cc95560e01b81526001600160a01b03878116600483015286811660248301529194509084169063485cc95590604401600060405180830381600087803b158015620009dc57600080fd5b505af1158015620009f1573d6000803e3d6000fd5b505050506001600160a01b0385811660008181526069602081815260408084208a87168086529083528185208054978b166001600160a01b0319988916811790915593835281852086865283528185208054881685179055606a8054600181018255958190527f116fea137db6e131133e7f2bab296045d8f41cc5607279db17b218cab0929a5190950180549097168417909655925483519283529082015295985088957f0d3648bd0f6ba80134a33ba9275ac585d9d315f0ad8355cddefde31afa28d0e9910160405180910390a3505050505092915050565b6033546001600160a01b0316331462000b275760405162461bcd60e51b815260206004820181905260248201527f4f776e61626c653a2063616c6c6572206973206e6f7420746865206f776e6572604482015260640162000389565b6001600160a01b03811662000b8e5760405162461bcd60e51b815260206004820152602660248201527f4f776e61626c653a206e6577206f776e657220697320746865207a65726f206160448201526564647265737360d01b606482015260840162000389565b62000b998162000beb565b50565b6066546001600160a01b0316331462000bc95760405162461bcd60e51b8152600401620003899062000f04565b606580546001600160a01b0319166001600160a01b0392909216919091179055565b603380546001600160a01b038381166001600160a01b0319831681179093556040519116919082907f8be0079c531659141344cd1fd0a4f28419497f9722a3daafe3b4186f6b6457e090600090a35050565b600054610100900460ff1662000c675760405162461bcd60e51b8152600401620003899062000f32565b62000c7162000d05565b620004e462000d2f565b60606040518060200162000c8f9062000d72565b601f1982820381018352606754606854601f90930190911660208181016040908152600083525162000cd1946001600160a01b03948516941692910162000eb5565b60408051601f198184030181529082905262000cf1929160200162000e82565b604051602081830303815290604052905090565b600054610100900460ff16620004e45760405162461bcd60e51b8152600401620003899062000f32565b600054610100900460ff1662000d595760405162461bcd60e51b8152600401620003899062000f32565b620004e43362000beb565b6135618062000fb183390190565b610f2f806200451283390190565b80356001600160a01b038116811462000d9857600080fd5b919050565b60006020828403121562000daf578081fd5b62000dba8262000d80565b9392505050565b6000806040838503121562000dd4578081fd5b62000ddf8362000d80565b915062000def6020840162000d80565b90509250929050565b6000806000806080858703121562000e0e578182fd5b62000e198562000d80565b935062000e296020860162000d80565b92506040850135915062000e406060860162000d80565b905092959194509250565b60006020828403121562000e5d578081fd5b5035919050565b6000825162000e7881846020870162000f7d565b9190910192915050565b6000835162000e9681846020880162000f7d565b83519083019062000eac81836020880162000f7d565b01949350505050565b600060018060a01b03808616835280851660208401525060606040830152825180606084015262000eee81608085016020870162000f7d565b601f01601f191691909101608001949350505050565b6020808252601490820152732ab734b9bbb0b82b191d102327a92124a22222a760611b604082015260600190565b6020808252602b908201527f496e697469616c697a61626c653a20636f6e7472616374206973206e6f74206960408201526a6e697469616c697a696e6760a81b606082015260800190565b60005b8381101562000f9a57818101518382015260200162000f80565b8381111562000faa576000848401525b5050505056fe608060405234801561001057600080fd5b50604080518082018252600a81526904e656f53776170204c560b41b6020918201528151808301835260018152603160f81b9082015281517f8b73c3c69bb8fe3d512ecc4cf759cc79239f7b179b0ffacaa9a75d522b39400f818301527f1523e8a5d48a09ba9d402bc62ad193187a64093dca48399d280ff626d502dbb2818401527fc89efdaa54c0f20c7adf612882df0950f5a951637e0307cdcb4c672f298b8bc660608201524660808201523060a0808301919091528351808303909101815260c09091019092528151910120600355613470806100f16000396000f3fe6080604052600436106102345760003560e01c8063715018a61161012e578063c45a0155116100ab578063dc12042f1161006f578063dc12042f14610712578063dd62ed3e1461074b578063e21f37ce14610783578063f2fde38b146107c3578063fff6cae9146107e357610252565b8063c45a015514610683578063c7b8981c146106a3578063cd3c5b4d146106b8578063d21220a7146106d2578063d505accf146106f257610252565b806395d89b41116100f257806395d89b41146105e6578063a9059cbb14610618578063b35c66d214610638578063ba9a7a561461064d578063bc25cf771461066357610252565b8063715018a61461053b5780637464fc3d146105505780637ecebe001461056657806389afcb44146105935780638da5cb5b146105c857610252565b80632b726882116101bc578063485cc95511610180578063485cc955146104a25780635909c0d5146104c25780635a3d5493146104d85780636a627842146104ee57806370a082311461050e57610252565b80632b726882146103ee57806330adf81f14610411578063313ce567146104455780633644e5151461046c5780633c0c26181461048257610252565b8063095ea7b311610203578063095ea7b3146103225780630dfe1681146103525780631225a7961461038a57806318160ddd146103aa57806323b872dd146103ce57610252565b8063022c0d9f1461026457806306fdde031461028657806308856caf146102d25780630902f1ac146102e157610252565b366102525734606b600082825461024b919061329e565b9091555050005b34606b600082825461024b919061329e565b34801561027057600080fd5b5061028461027f366004612fae565b6107f8565b005b34801561029257600080fd5b506102bc6040518060400160405280600a81526020016904e656f53776170204c560b41b81525081565b6040516102c9919061312e565b60405180910390f35b3480156102de57600080fd5b50005b3480156102ed57600080fd5b506102f6610d32565b604080516001600160701b03948516815293909216602084015263ffffffff16908201526060016102c9565b34801561032e57600080fd5b5061034261033d366004612e1d565b610d5c565b60405190151581526020016102c9565b34801561035e57600080fd5b50606d54610372906001600160a01b031681565b6040516001600160a01b0390911681526020016102c9565b34801561039657600080fd5b506102846103a5366004612ecf565b610d72565b3480156103b657600080fd5b506103c060005481565b6040519081526020016102c9565b3480156103da57600080fd5b506103426103e9366004612d68565b610db3565b3480156103fa57600080fd5b50610403610e45565b6040516102c99291906131d7565b34801561041d57600080fd5b506103c07f6e71edae12b1b97f4d1f60370fef10105fa2faae0126114a169c64845d6126c981565b34801561045157600080fd5b5061045a601281565b60405160ff90911681526020016102c9565b34801561047857600080fd5b506103c060035481565b34801561048e57600080fd5b50606f54610372906001600160a01b031681565b3480156104ae57600080fd5b506102846104bd366004612d30565b610f04565b3480156104ce57600080fd5b506103c060715481565b3480156104e457600080fd5b506103c060725481565b3480156104fa57600080fd5b506103c0610509366004612cf8565b6110c0565b34801561051a57600080fd5b506103c0610529366004612cf8565b60016020526000908152604090205481565b34801561054757600080fd5b50610284611800565b34801561055c57600080fd5b506103c060735481565b34801561057257600080fd5b506103c0610581366004612cf8565b60046020526000908152604090205481565b34801561059f57600080fd5b506105b36105ae366004612cf8565b611864565b604080519283526020830191909152016102c9565b3480156105d457600080fd5b506038546001600160a01b0316610372565b3480156105f257600080fd5b506102bc6040518060400160405280600681526020016504e454f2d4c560d41b81525081565b34801561062457600080fd5b50610342610633366004612e1d565b611c05565b34801561064457600080fd5b50610284611c12565b34801561065957600080fd5b506103c06103e881565b34801561066f57600080fd5b5061028461067e366004612cf8565b611df6565b34801561068f57600080fd5b50606c54610372906001600160a01b031681565b3480156106af57600080fd5b50610284611f18565b3480156106c457600080fd5b50606a546103429060ff1681565b3480156106de57600080fd5b50606e54610372906001600160a01b031681565b3480156106fe57600080fd5b5061028461070d366004612da8565b611f62565b34801561071e57600080fd5b50610727612176565b6040805193845291151560208401526001600160a01b0316908201526060016102c9565b34801561075757600080fd5b506103c0610766366004612d30565b600260209081526000928352604080842090915290825290205481565b34801561078f57600080fd5b506102bc6040518060400160405280601481526020017312481a185d99481899595b881d5c19dc9859195960621b81525081565b3480156107cf57600080fd5b506102846107de366004612cf8565b6121f2565b3480156107ef57600080fd5b506102846122bd565b6075546001146108235760405162461bcd60e51b815260040161081a90613161565b60405180910390fd5b6000607555841515806108365750600084115b6108905760405162461bcd60e51b815260206004820152602560248201527f556e697377617056323a20494e53554646494349454e545f4f55545055545f416044820152641353d5539560da1b606482015260840161081a565b60008061089b610d32565b5091509150816001600160701b0316871080156108c05750806001600160701b031686105b6109165760405162461bcd60e51b815260206004820152602160248201527f556e697377617056323a20494e53554646494349454e545f4c495155494449546044820152605960f81b606482015260840161081a565b606d54606e5460009182916001600160a01b039182169190811690891682148015906109545750806001600160a01b0316896001600160a01b031614155b6109985760405162461bcd60e51b8152602060048201526015602482015274556e697377617056323a20494e56414c49445f544f60581b604482015260640161081a565b8a156109a9576109a9828a8d6123ff565b89156109ba576109ba818a8c6123ff565b8615610a27576040516304347a1760e21b81526001600160a01b038a16906310d1e85c906109f49033908f908f908e908e906004016130e2565b600060405180830381600087803b158015610a0e57600080fd5b505af1158015610a22573d6000803e3d6000fd5b505050505b6040516370a0823160e01b81523060048201526001600160a01b038316906370a082319060240160206040518083038186803b158015610a6657600080fd5b505afa158015610a7a573d6000803e3d6000fd5b505050506040513d601f19601f82011682018060405250810190610a9e9190612f73565b6040516370a0823160e01b81523060048201529094506001600160a01b038216906370a082319060240160206040518083038186803b158015610ae057600080fd5b505afa158015610af4573d6000803e3d6000fd5b505050506040513d601f19601f82011682018060405250810190610b189190612f73565b92505050600089856001600160701b0316610b33919061333e565b8311610b40576000610b5d565b610b538a6001600160701b03871661333e565b610b5d908461333e565b90506000610b748a6001600160701b03871661333e565b8311610b81576000610b9e565b610b948a6001600160701b03871661333e565b610b9e908461333e565b90506000821180610baf5750600081115b610c075760405162461bcd60e51b8152602060048201526024808201527f556e697377617056323a20494e53554646494349454e545f494e5055545f414d60448201526313d5539560e21b606482015260840161081a565b6000610c1483600361331f565b610c20866103e861331f565b610c2a919061333e565b90506000610c3983600361331f565b610c45866103e861331f565b610c4f919061333e565b9050610c676001600160701b03808916908a1661331f565b610c7490620f424061331f565b610c7e828461331f565b1015610cbb5760405162461bcd60e51b815260206004820152600c60248201526b556e697377617056323a204b60a01b604482015260640161081a565b5050610cc9848488886124d7565b60408051838152602081018390529081018c9052606081018b90526001600160a01b038a169033907fd78ad95fa46c994b6551d0da85fc275fe613ce37657fb8d5e3d130840159d8229060800160405180910390a350506001607555505050505050505050565b565b6070546001600160701b0380821692600160701b830490911691600160e01b900463ffffffff1690565b6000610d69338484612663565b50600192915050565b606c546001600160a01b0316331480610da0575081606001516001600160a01b0316336001600160a01b0316145b15610daf57610daf82826126c5565b5050565b6001600160a01b038316600090815260026020908152604080832033845290915281205415610e30576001600160a01b0384166000908152600260209081526040808320338452909152902054610e0b90839061333e565b6001600160a01b03851660009081526002602090815260408083203384529091529020555b610e3b84848461280e565b5060019392505050565b604080516080810182526000808252602082018190529181018290526060810191909152606c546040805163de5c470960e01b815290516000926001600160a01b03169163de5c4709916004808301926080929190829003018186803b158015610eae57600080fd5b505afa158015610ec2573d6000803e3d6000fd5b505050506040513d601f19601f82011682018060405250810190610ee69190612e48565b606a60019054906101000a90046001600160a01b0316915091509091565b600554610100900460ff16610f1f5760055460ff1615610f23565b303b155b610f865760405162461bcd60e51b815260206004820152602e60248201527f496e697469616c697a61626c653a20636f6e747261637420697320616c72656160448201526d191e481a5b9a5d1a585b1a5e995960921b606482015260840161081a565b600554610100900460ff16158015610fa8576005805461ffff19166101011790555b606d80546001600160a01b038086166001600160a01b031992831617909255606e8054928516928216929092179091556001607555606f805482167302f0826ef6ad107cfc861152b32b52fd11bab9ed17905560748054821673bfa12e4e1411b62eda8b035d71735667422a6a9e179055606c80549091163390811790915561102f6128b6565b6110a8816001600160a01b031663094b74156040518163ffffffff1660e01b815260040160206040518083038186803b15801561106b57600080fd5b505afa15801561107f573d6000803e3d6000fd5b505050506040513d601f19601f820116820180604052508101906110a39190612d14565b6128ed565b5080156110bb576005805461ff00191690555b505050565b60006075546001146110e45760405162461bcd60e51b815260040161081a90613161565b60006075819055806110f4610d32565b50606d546040516370a0823160e01b81523060048201529294509092506000916001600160a01b03909116906370a082319060240160206040518083038186803b15801561114157600080fd5b505afa158015611155573d6000803e3d6000fd5b505050506040513d601f19601f820116820180604052508101906111799190612f73565b606e546040516370a0823160e01b81523060048201529192506000916001600160a01b03909116906370a082319060240160206040518083038186803b1580156111c257600080fd5b505afa1580156111d6573d6000803e3d6000fd5b505050506040513d601f19601f820116820180604052508101906111fa9190612f73565b905060006112116001600160701b0386168461333e565b905060006112286001600160701b0386168461333e565b90506000611236878761293f565b60005490915080611274576103e8611256611251858761331f565b612a8d565b611260919061333e565b985061126f60006103e8612afd565b6112bb565b6112b86001600160701b03891661128b838761331f565b61129591906132dc565b6001600160701b0389166112a9848761331f565b6112b391906132dc565b612b8e565b98505b6000891161131c5760405162461bcd60e51b815260206004820152602860248201527f556e697377617056323a20494e53554646494349454e545f4c495155494449546044820152671657d3525395115160c21b606482015260840161081a565b6113268a8a612afd565b61133286868a8a6124d7565b811561135b57607054611357906001600160701b03600160701b82048116911661331f565b6073555b604080518581526020810185905233917f4c209b5fc8ad50758f13e2e1088ba56a560dff690a1c6fef26394f4c03821c4f910160405180910390a2606a5460ff1661174d57606c546040805163de5c470960e01b815290516000926001600160a01b03169163de5c4709916004808301926080929190829003018186803b1580156113e557600080fd5b505afa1580156113f9573d6000803e3d6000fd5b505050506040513d601f19601f8201168201806040525081019061141d9190612e48565b516001600160a01b0316148015906114bd5750606c546040805163de5c470960e01b815290516000926001600160a01b03169163de5c4709916004808301926080929190829003018186803b15801561147557600080fd5b505afa158015611489573d6000803e3d6000fd5b505050506040513d601f19601f820116820180604052508101906114ad9190612e48565b606001516001600160a01b031614155b156116b657606f54606d546001600160a01b03908116911614806114f15750606f54606e546001600160a01b039081169116145b1561161f57606c546040805163de5c470960e01b8152905161157b926001600160a01b03169163de5c4709916004808301926080929190829003018186803b15801561153c57600080fd5b505afa158015611550573d6000803e3d6000fd5b505050506040513d601f19601f820116820180604052508101906115749190612e48565b60006126c5565b606c546040805163de5c470960e01b8152905160008051602061341b833981519152926001600160a01b03169163de5c4709916004808301926080929190829003018186803b1580156115cd57600080fd5b505afa1580156115e1573d6000803e3d6000fd5b505050506040513d601f19601f820116820180604052508101906116059190612e48565b60405161161291906131fd565b60405180910390a16117ed565b606c546040805163de5c470960e01b8152905160008051602061341b833981519152926001600160a01b03169163de5c4709916004808301926080929190829003018186803b15801561167157600080fd5b505afa158015611685573d6000803e3d6000fd5b505050506040513d601f19601f820116820180604052508101906116a99190612e48565b604051611612919061324d565b606c546040805163de5c470960e01b8152905160008051602061341b833981519152926001600160a01b03169163de5c4709916004808301926080929190829003018186803b15801561170857600080fd5b505afa15801561171c573d6000803e3d6000fd5b505050506040513d601f19601f820116820180604052508101906117409190612e48565b6040516116129190613225565b606c546040805163de5c470960e01b8152905160008051602061341b833981519152926001600160a01b03169163de5c4709916004808301926080929190829003018186803b15801561179f57600080fd5b505afa1580156117b3573d6000803e3d6000fd5b505050506040513d601f19601f820116820180604052508101906117d79190612e48565b6040516117e49190613272565b60405180910390a15b5050600160755550949695505050505050565b6038546001600160a01b0316331461185a5760405162461bcd60e51b815260206004820181905260248201527f4f776e61626c653a2063616c6c6572206973206e6f7420746865206f776e6572604482015260640161081a565b610d3060006128ed565b6000806075546001146118895760405162461bcd60e51b815260040161081a90613161565b6000607581905580611899610d32565b50606d54606e546040516370a0823160e01b81523060048201529395509193506001600160a01b039081169291169060009083906370a082319060240160206040518083038186803b1580156118ee57600080fd5b505afa158015611902573d6000803e3d6000fd5b505050506040513d601f19601f820116820180604052508101906119269190612f73565b6040516370a0823160e01b81523060048201529091506000906001600160a01b038416906370a082319060240160206040518083038186803b15801561196b57600080fd5b505afa15801561197f573d6000803e3d6000fd5b505050506040513d601f19601f820116820180604052508101906119a39190612f73565b306000908152600160205260408120549192506119c0888861293f565b600054909150806119d1868561331f565b6119db91906132dc565b9a50806119e8858561331f565b6119f291906132dc565b995060008b118015611a04575060008a115b611a615760405162461bcd60e51b815260206004820152602860248201527f556e697377617056323a20494e53554646494349454e545f4c495155494449546044820152671657d0955493915160c21b606482015260840161081a565b611a6b3084612ba6565b611a76878d8d6123ff565b611a81868d8c6123ff565b6040516370a0823160e01b81523060048201526001600160a01b038816906370a082319060240160206040518083038186803b158015611ac057600080fd5b505afa158015611ad4573d6000803e3d6000fd5b505050506040513d601f19601f82011682018060405250810190611af89190612f73565b6040516370a0823160e01b81523060048201529095506001600160a01b038716906370a082319060240160206040518083038186803b158015611b3a57600080fd5b505afa158015611b4e573d6000803e3d6000fd5b505050506040513d601f19601f82011682018060405250810190611b729190612f73565b9350611b8085858b8b6124d7565b8115611ba957607054611ba5906001600160701b03600160701b82048116911661331f565b6073555b604080518c8152602081018c90526001600160a01b038e169133917fdccd412f0b1252819cb1fd330b93224ca42612892bb3f4f789976e6d81936496910160405180910390a35050505050505050506001607581905550915091565b6000610d6933848461280e565b606f546074546040805163022090c760e11b815281516001600160a01b03948516946000948594911692630441218e926004808301939282900301818787803b158015611c5e57600080fd5b505af1158015611c72573d6000803e3d6000fd5b505050506040513d601f19601f82011682018060405250810190611c969190612f8b565b9092509050611ca760766000612cc6565b60008260775411611cb85782611cc6565b607754611cc690600161329e565b90505b81811015611d1857607680546001810182556000919091527fb5732705f5241370a28908c2fe1303cb223f03b90d857fd0573f003f79fefed40181905580611d10816133aa565b915050611cc9565b5060006076805480602002602001604051908101604052809291908181526020018280548015611d6757602002820191906000526020600020905b815481526020019060010190808311611d53575b5050604051635957c38560e11b8152939450506001600160a01b0387169263b2af870a9250611d9d91503090859060040161308c565b602060405180830381600087803b158015611db757600080fd5b505af1158015611dcb573d6000803e3d6000fd5b505050506040513d601f19601f82011682018060405250810190611def9190612f73565b5050505050565b607554600114611e185760405162461bcd60e51b815260040161081a90613161565b6000607555606d54606e546070546040516370a0823160e01b81523060048201526001600160a01b039384169390921691611ec691849186916001600160701b03169083906370a08231906024015b60206040518083038186803b158015611e7f57600080fd5b505afa158015611e93573d6000803e3d6000fd5b505050506040513d601f19601f82011682018060405250810190611eb79190612f73565b611ec1919061333e565b6123ff565b6070546040516370a0823160e01b8152306004820152611f0e9183918691600160701b90046001600160701b0316906001600160a01b038416906370a0823190602401611e67565b5050600160755550565b606a54606b546040516101009092046001600160a01b03169182916108fc811502916000818181858888f19350505050158015611f59573d6000803e3d6000fd5b50506000606b55565b42841015611fa75760405162461bcd60e51b8152602060048201526012602482015271155b9a5cddd85c158c8e881156141254915160721b604482015260640161081a565b6003546001600160a01b038816600090815260046020526040812080549192917f6e71edae12b1b97f4d1f60370fef10105fa2faae0126114a169c64845d6126c9918b918b918b919087611ffa836133aa565b909155506040805160208101969096526001600160a01b0394851690860152929091166060840152608083015260a082015260c0810187905260e0016040516020818303038152906040528051906020012060405160200161207392919061190160f01b81526002810192909252602282015260420190565b60408051601f198184030181528282528051602091820120600080855291840180845281905260ff88169284019290925260608301869052608083018590529092509060019060a0016020604051602081039080840390855afa1580156120de573d6000803e3d6000fd5b5050604051601f1901519150506001600160a01b038116158015906121145750886001600160a01b0316816001600160a01b0316145b6121605760405162461bcd60e51b815260206004820152601c60248201527f556e697377617056323a20494e56414c49445f5349474e415455524500000000604482015260640161081a565b61216b898989612663565b505050505050505050565b606c54600090819081906001600160a01b03163314806121bf5750606a5461010090046001600160a01b0316321480156121bf5750606a5461010090046001600160a01b031615155b156121e6575050606b54606a54909260ff821692506101009091046001600160a01b031690565b50600092839250329150565b6038546001600160a01b0316331461224c5760405162461bcd60e51b815260206004820181905260248201527f4f776e61626c653a2063616c6c6572206973206e6f7420746865206f776e6572604482015260640161081a565b6001600160a01b0381166122b15760405162461bcd60e51b815260206004820152602660248201527f4f776e61626c653a206e6577206f776e657220697320746865207a65726f206160448201526564647265737360d01b606482015260840161081a565b6122ba816128ed565b50565b6075546001146122df5760405162461bcd60e51b815260040161081a90613161565b6000607555606d546040516370a0823160e01b81523060048201526123f8916001600160a01b0316906370a082319060240160206040518083038186803b15801561232957600080fd5b505afa15801561233d573d6000803e3d6000fd5b505050506040513d601f19601f820116820180604052508101906123619190612f73565b606e546040516370a0823160e01b81523060048201526001600160a01b03909116906370a082319060240160206040518083038186803b1580156123a457600080fd5b505afa1580156123b8573d6000803e3d6000fd5b505050506040513d601f19601f820116820180604052508101906123dc9190612f73565b6070546001600160701b0380821691600160701b9004166124d7565b6001607555565b604080518082018252601981527f7472616e7366657228616464726573732c75696e74323536290000000000000060209182015281516001600160a01b0385811660248301526044808301869052845180840390910181526064909201845291810180516001600160e01b031663a9059cbb60e01b1790529151600092839287169161248b9190613070565b6000604051808303816000865af19150503d80600081146124c8576040519150601f19603f3d011682016040523d82523d6000602084013e6124cd565b606091505b5050505050505050565b60006124e8640100000000426133c5565b60705490915060009061250890600160e01b900463ffffffff1683613355565b905060008163ffffffff1611801561252857506001600160701b03841615155b801561253c57506001600160701b03831615155b156125cb578063ffffffff166125648561255586612c3b565b6001600160e01b031690612c5a565b6001600160e01b0316612577919061331f565b60716000828254612588919061329e565b909155505063ffffffff81166125a18461255587612c3b565b6001600160e01b03166125b4919061331f565b607260008282546125c5919061329e565b90915550505b6070805463ffffffff8416600160e01b026001600160e01b036001600160701b03898116600160701b9081026001600160e01b03199095168c83161794909417918216831794859055604080519382169282169290921783529290930490911660208201527f1c411e9a96e071241c2f21f7726b17ae89e3cab4c78be50e062b03a9fffbbad1910160405180910390a1505050505050565b6001600160a01b0383811660008181526002602090815260408083209487168084529482529182902085905590518481527f8c5be1e5ebec7d5bd14f71427d1e84f3dd0314c0f7b2291e5b200ac8c7c3b92591015b60405180910390a3505050565b606a5460ff1615806126da5750600181151514155b15610daf576060820151606a8054610100600160a81b0319166101006001600160a01b0393841602179055606f548351604080860151905163026e402b60e01b815291841660048301526024820152911690819063026e402b90604401600060405180830381600087803b15801561275157600080fd5b505af1158015612765573d6000803e3d6000fd5b50505050612710836040015110156127fc57806001600160a01b031663026e402b8460200151856040015161271061279d919061333e565b6040516001600160e01b031960e085901b1681526001600160a01b0390921660048301526024820152604401600060405180830381600087803b1580156127e357600080fd5b505af11580156127f7573d6000803e3d6000fd5b505050505b50606a805460ff191660011790555050565b6001600160a01b03831660009081526001602052604090205461283290829061333e565b6001600160a01b03808516600090815260016020526040808220939093559084168152205461286290829061329e565b6001600160a01b0380841660008181526001602052604090819020939093559151908516907fddf252ad1be2c89b69c2b068fc378daa952ba7f163c4a11628f55a4df523b3ef906126b89085815260200190565b600554610100900460ff166128dd5760405162461bcd60e51b815260040161081a9061318c565b6128e5612c6f565b610d30612c96565b603880546001600160a01b038381166001600160a01b0319831681179093556040519116919082907f8be0079c531659141344cd1fd0a4f28419497f9722a3daafe3b4186f6b6457e090600090a35050565b600080606c60009054906101000a90046001600160a01b03166001600160a01b031663017e7e586040518163ffffffff1660e01b815260040160206040518083038186803b15801561299057600080fd5b505afa1580156129a4573d6000803e3d6000fd5b505050506040513d601f19601f820116820180604052508101906129c89190612d14565b6073546001600160a01b038216158015945091925090612a79578015612a74576000612a036112516001600160701b0380881690891661331f565b90506000612a1083612a8d565b905080821115612a71576000612a26828461333e565b600054612a33919061331f565b9050600082612a4385600561331f565b612a4d919061329e565b90506000612a5b82846132dc565b90508015612a6d57612a6d8782612afd565b5050505b50505b612a85565b8015612a855760006073555b505092915050565b60006003821115612aee5750806000612aa76002836132dc565b612ab290600161329e565b90505b81811015612ae857905080600281612acd81866132dc565b612ad7919061329e565b612ae191906132dc565b9050612ab5565b50919050565b8115612af8575060015b919050565b80600054612b0b919061329e565b60009081556001600160a01b038316815260016020526040902054612b3190829061329e565b6001600160a01b0383166000818152600160205260408082209390935591519091907fddf252ad1be2c89b69c2b068fc378daa952ba7f163c4a11628f55a4df523b3ef90612b829085815260200190565b60405180910390a35050565b6000818310612b9d5781612b9f565b825b9392505050565b6001600160a01b038216600090815260016020526040902054612bca90829061333e565b6001600160a01b03831660009081526001602052604081209190915580548291908190612bf890849061333e565b90915550506040518181526000906001600160a01b038416907fddf252ad1be2c89b69c2b068fc378daa952ba7f163c4a11628f55a4df523b3ef90602001612b82565b6000612c54600160701b6001600160701b0384166132f0565b92915050565b6000612b9f6001600160701b038316846132b6565b600554610100900460ff16610d305760405162461bcd60e51b815260040161081a9061318c565b600554610100900460ff16612cbd5760405162461bcd60e51b815260040161081a9061318c565b610d30336128ed565b50805460008255906000526020600020908101906122ba91905b80821115612cf45760008155600101612ce0565b5090565b600060208284031215612d09578081fd5b8135612b9f81613405565b600060208284031215612d25578081fd5b8151612b9f81613405565b60008060408385031215612d42578081fd5b8235612d4d81613405565b91506020830135612d5d81613405565b809150509250929050565b600080600060608486031215612d7c578081fd5b8335612d8781613405565b92506020840135612d9781613405565b929592945050506040919091013590565b600080600080600080600060e0888a031215612dc2578283fd5b8735612dcd81613405565b96506020880135612ddd81613405565b95506040880135945060608801359350608088013560ff81168114612e00578384fd5b9699959850939692959460a0840135945060c09093013592915050565b60008060408385031215612e2f578182fd5b8235612e3a81613405565b946020939093013593505050565b600060808284031215612e59578081fd5b6040516080810181811067ffffffffffffffff82111715612e8857634e487b7160e01b83526041600452602483fd5b6040528251612e9681613405565b81526020830151612ea681613405565b6020820152604083810151908201526060830151612ec381613405565b60608201529392505050565b60008082840360a0811215612ee2578283fd5b6080811215612eef578283fd5b506040516080810181811067ffffffffffffffff82111715612f1f57634e487b7160e01b84526041600452602484fd5b6040528335612f2d81613405565b81526020840135612f3d81613405565b6020820152604084810135908201526060840135612f5a81613405565b6060820152915060808301358015158114612d5d578182fd5b600060208284031215612f84578081fd5b5051919050565b60008060408385031215612f9d578182fd5b505080516020909101519092909150565b600080600080600060808688031215612fc5578081fd5b85359450602086013593506040860135612fde81613405565b9250606086013567ffffffffffffffff80821115612ffa578283fd5b818801915088601f83011261300d578283fd5b81358181111561301b578384fd5b89602082850101111561302c578384fd5b9699959850939650602001949392505050565b80516001600160a01b0390811683526020808301518216908401526040808301519084015260609182015116910152565b6000825161308281846020870161337a565b9190910192915050565b6001600160a01b038316815260406020808301829052835191830182905260009184820191906060850190845b818110156130d5578451835293830193918301916001016130b9565b5090979650505050505050565b60018060a01b038616815284602082015283604082015260806060820152816080820152818360a0830137600081830160a090810191909152601f909201601f19160101949350505050565b602081526000825180602084015261314d81604085016020870161337a565b601f01601f19169190910160400192915050565b602080825260119082015270155b9a5cddd85c158c8e881313d0d2d151607a1b604082015260600190565b6020808252602b908201527f496e697469616c697a61626c653a20636f6e7472616374206973206e6f74206960408201526a6e697469616c697a696e6760a81b606082015260800190565b60a081016131e5828561303f565b6001600160a01b039290921660809190910152919050565b60a0810161320b828461303f565b6a11195b194818d85b1b195960aa1b608083015292915050565b60a08101613233828461303f565b6a426164206164647265737360a81b608083015292915050565b60a0810161325b828461303f565b67139bdd0815d3905560c21b608083015292915050565b60a08101613280828461303f565b6e105b1c9958591e48195b98589b1959608a1b608083015292915050565b600082198211156132b1576132b16133d9565b500190565b60006001600160e01b03838116806132d0576132d06133ef565b92169190910492915050565b6000826132eb576132eb6133ef565b500490565b60006001600160e01b0382811684821681151582840482111615613316576133166133d9565b02949350505050565b6000816000190483118215151615613339576133396133d9565b500290565b600082821015613350576133506133d9565b500390565b600063ffffffff83811690831681811015613372576133726133d9565b039392505050565b60005b8381101561339557818101518382015260200161337d565b838111156133a4576000848401525b50505050565b60006000198214156133be576133be6133d9565b5060010190565b6000826133d4576133d46133ef565b500690565b634e487b7160e01b600052601160045260246000fd5b634e487b7160e01b600052601260045260246000fd5b6001600160a01b03811681146122ba57600080fdfe6b85700bafc133797158cf9265f14de360654ae02a0f644c329bff0334784e99a26469706673582212202c956d5e08c6e820a8f1192239d4055c31fbd5bc8a47fa5da4777b57226efaa264736f6c63430008040033608060405260405162000f2f38038062000f2f8339810160408190526200002691620004da565b82816200005560017f360894a13ba1a3210667c828492db98dca3e2076cc3735a920a3ca505d382bbd62000609565b60008051602062000ee8833981519152146200008157634e487b7160e01b600052600160045260246000fd5b6200008f82826000620000ff565b50620000bf905060017fb53127684a568b3173ae13b9f8a6016e243e63b6e8ee1178d6a717850b5d610462000609565b60008051602062000ec883398151915214620000eb57634e487b7160e01b600052600160045260246000fd5b620000f6826200013c565b50505062000672565b6200010a8362000197565b600082511180620001185750805b156200013757620001358383620001d960201b620002601760201c565b505b505050565b7f7e644d79422f17c01e4894b5f4f588d331ebfa28653d42ae832dc59e38c9798f6200016762000208565b604080516001600160a01b03928316815291841660208301520160405180910390a1620001948162000241565b50565b620001a281620002f6565b6040516001600160a01b038216907fbc7cd75a20ee27fd9adebab32041f755214dbc6bffa90cc0225b39da2e5c2d3b90600090a250565b606062000201838360405180606001604052806027815260200162000f086027913962000399565b9392505050565b60006200023260008051602062000ec883398151915260001b6200047660201b620002081760201c565b546001600160a01b0316919050565b6001600160a01b038116620002ac5760405162461bcd60e51b815260206004820152602660248201527f455243313936373a206e65772061646d696e20697320746865207a65726f206160448201526564647265737360d01b60648201526084015b60405180910390fd5b80620002d560008051602062000ec883398151915260001b6200047660201b620002081760201c565b80546001600160a01b0319166001600160a01b039290921691909117905550565b6200030c816200047960201b6200028c1760201c565b620003705760405162461bcd60e51b815260206004820152602d60248201527f455243313936373a206e657720696d706c656d656e746174696f6e206973206e60448201526c1bdd08184818dbdb9d1c9858dd609a1b6064820152608401620002a3565b80620002d560008051602062000ee883398151915260001b6200047660201b620002081760201c565b6060833b620003fa5760405162461bcd60e51b815260206004820152602660248201527f416464726573733a2064656c65676174652063616c6c20746f206e6f6e2d636f6044820152651b9d1c9858dd60d21b6064820152608401620002a3565b600080856001600160a01b031685604051620004179190620005b6565b600060405180830381855af49150503d806000811462000454576040519150601f19603f3d011682016040523d82523d6000602084013e62000459565b606091505b5090925090506200046c8282866200047f565b9695505050505050565b90565b3b151590565b606083156200049057508162000201565b825115620004a15782518084602001fd5b8160405162461bcd60e51b8152600401620002a39190620005d4565b80516001600160a01b0381168114620004d557600080fd5b919050565b600080600060608486031215620004ef578283fd5b620004fa84620004bd565b92506200050a60208501620004bd565b60408501519092506001600160401b038082111562000527578283fd5b818601915086601f8301126200053b578283fd5b8151818111156200055057620005506200065c565b604051601f8201601f19908116603f011681019083821181831017156200057b576200057b6200065c565b8160405282815289602084870101111562000594578586fd5b620005a78360208301602088016200062d565b80955050505050509250925092565b60008251620005ca8184602087016200062d565b9190910192915050565b6020815260008251806020840152620005f58160408501602087016200062d565b601f01601f19169190910160400192915050565b6000828210156200062857634e487b7160e01b81526011600452602481fd5b500390565b60005b838110156200064a57818101518382015260200162000630565b83811115620001355750506000910152565b634e487b7160e01b600052604160045260246000fd5b61084680620006826000396000f3fe60806040526004361061004e5760003560e01c80633659cfe6146100655780634f1ef286146100855780635c60da1b146100985780638f283970146100c9578063f851a440146100e95761005d565b3661005d5761005b6100fe565b005b61005b6100fe565b34801561007157600080fd5b5061005b6100803660046106d6565b610118565b61005b6100933660046106f0565b61015f565b3480156100a457600080fd5b506100ad6101d0565b6040516001600160a01b03909116815260200160405180910390f35b3480156100d557600080fd5b5061005b6100e43660046106d6565b61020b565b3480156100f557600080fd5b506100ad610235565b610106610292565b610116610111610331565b61033b565b565b61012061035f565b6001600160a01b0316336001600160a01b031614156101575761015481604051806020016040528060008152506000610392565b50565b6101546100fe565b61016761035f565b6001600160a01b0316336001600160a01b031614156101c8576101c38383838080601f01602080910402602001604051908101604052809392919081815260200183838082843760009201919091525060019250610392915050565b505050565b6101c36100fe565b60006101da61035f565b6001600160a01b0316336001600160a01b03161415610200576101fb610331565b905090565b6102086100fe565b90565b61021361035f565b6001600160a01b0316336001600160a01b0316141561015757610154816103bd565b600061023f61035f565b6001600160a01b0316336001600160a01b03161415610200576101fb61035f565b606061028583836040518060600160405280602781526020016107ea60279139610411565b9392505050565b3b151590565b61029a61035f565b6001600160a01b0316336001600160a01b031614156101165760405162461bcd60e51b815260206004820152604260248201527f5472616e73706172656e745570677261646561626c6550726f78793a2061646d60448201527f696e2063616e6e6f742066616c6c6261636b20746f2070726f78792074617267606482015261195d60f21b608482015260a4015b60405180910390fd5b60006101fb6104e5565b3660008037600080366000845af43d6000803e80801561035a573d6000f35b3d6000fd5b60007fb53127684a568b3173ae13b9f8a6016e243e63b6e8ee1178d6a717850b5d61035b546001600160a01b0316919050565b61039b8361050d565b6000825111806103a85750805b156101c3576103b78383610260565b50505050565b7f7e644d79422f17c01e4894b5f4f588d331ebfa28653d42ae832dc59e38c9798f6103e661035f565b604080516001600160a01b03928316815291841660208301520160405180910390a16101548161054d565b6060833b6104705760405162461bcd60e51b815260206004820152602660248201527f416464726573733a2064656c65676174652063616c6c20746f206e6f6e2d636f6044820152651b9d1c9858dd60d21b6064820152608401610328565b600080856001600160a01b03168560405161048b919061076e565b600060405180830381855af49150503d80600081146104c6576040519150601f19603f3d011682016040523d82523d6000602084013e6104cb565b606091505b50915091506104db8282866105f6565b9695505050505050565b60007f360894a13ba1a3210667c828492db98dca3e2076cc3735a920a3ca505d382bbc610383565b6105168161062f565b6040516001600160a01b038216907fbc7cd75a20ee27fd9adebab32041f755214dbc6bffa90cc0225b39da2e5c2d3b90600090a250565b6001600160a01b0381166105b25760405162461bcd60e51b815260206004820152602660248201527f455243313936373a206e65772061646d696e20697320746865207a65726f206160448201526564647265737360d01b6064820152608401610328565b807fb53127684a568b3173ae13b9f8a6016e243e63b6e8ee1178d6a717850b5d61035b80546001600160a01b0319166001600160a01b039290921691909117905550565b60608315610605575081610285565b8251156106155782518084602001fd5b8160405162461bcd60e51b8152600401610328919061078a565b803b6106935760405162461bcd60e51b815260206004820152602d60248201527f455243313936373a206e657720696d706c656d656e746174696f6e206973206e60448201526c1bdd08184818dbdb9d1c9858dd609a1b6064820152608401610328565b807f360894a13ba1a3210667c828492db98dca3e2076cc3735a920a3ca505d382bbc6105d5565b80356001600160a01b03811681146106d157600080fd5b919050565b6000602082840312156106e7578081fd5b610285826106ba565b600080600060408486031215610704578182fd5b61070d846106ba565b9250602084013567ffffffffffffffff80821115610729578384fd5b818601915086601f83011261073c578384fd5b81358181111561074a578485fd5b87602082850101111561075b578485fd5b6020830194508093505050509250925092565b600082516107808184602087016107bd565b9190910192915050565b60208152600082518060208401526107a98160408501602087016107bd565b601f01601f19169190910160400192915050565b60005b838110156107d85781810151838201526020016107c0565b838111156103b7575050600091015256fe416464726573733a206c6f772d6c6576656c2064656c65676174652063616c6c206661696c6564a264697066735822122069ac9a514f444f6f37b64aed19aa32bf97a4cfbd6615fbb68871d57c29c6950f64736f6c63430008040033b53127684a568b3173ae13b9f8a6016e243e63b6e8ee1178d6a717850b5d6103360894a13ba1a3210667c828492db98dca3e2076cc3735a920a3ca505d382bbc416464726573733a206c6f772d6c6576656c2064656c65676174652063616c6c206661696c6564a26469706673582212204b4c5fbf37018d61245f925db7b2542291d34c296c168f92d922b1113d732cd164736f6c63430008040033",
  "linkReferences": {},
  "deployedLinkReferences": {}
}